S00E000053696D706C652E73726563AC
S113000030260020991E0000951E0000951E000059
S113001000000000000000000000000000000000DC
S1130020000000000000000000000000951E000019
S11300300000000000000000951E0000951E000056
S1130040951E0000951E0000951E0000951E0000E0
S1130050250B0000951E0000951E0000951E000053
S1130060951E000091160000A1160000B1160000B4
S1130070C1160000D1160000E1160000951E000014
S1130080951E0000951E000045080000951E000006
S1130090951E00000000000000000000951E0000F6
S11300A0951E0000951E0000951E0000951E000080
S11300B00000000010B5064C2378002B07D1054B37
S11300C0002B02D0044800E000BF0123237010BDC0
S11300D06C0000200000000018770000084B10B5E9
S11300E0002B03D00749084800E000BF0748036815
S11300F0002B00D110BD064B002BFBD09847F9E72D
S1130100000000007000002018770000187700003D
S11301100000000010B584B0040003A900230B7094
S113012001224A708B701C200E4B9847012C01D081
S113013004B010BD1C230093002301936B461C7272
S113014002236A46D37269460820074B9847002168
S11301500820064B9847064B1C70BFF35F8F62B6AE
S1130160E6E7C046750C0000FD0B0000050B00001F
S113017000000020034B186A000F01235840184068
S11301807047C0460044004110B57F280CD8CB0806
S1130190DB01C018002A08D1084C072319400122AA
S11301A08A40235C9343235410BD044A0723194017
S11301B0063B8B40115C0B431354F5E74C010020C4
S11301C000B583B06B46DA1DD87105480023C3819E
S11301D00133037402600381024B984703B000BDEE
S11301E038010020150A0000F0B5CE46474680B518
S11301F083B000239846174B9946174C40271EE0BE
S1130200502040421843C0B2C8470020C8471020BD
S1130210C8478025114E6B46DA1D00231370E78111
S113022001332374226023812000B047013D002D57
S1130230F1D143460133DBB29846082B05D043463F
S11302404246082ADCD90823DAE703B00CBC9046FE
S11302509946F0BDC101000038010020150A0000D4
S113026010B53C22204B1A73C82040001F4B9847FE
S1130270AE201F4CA047D520A0478020A047A8202F
S1130280A0473F20A047D320A0470020A0474020FC
S1130290A0478D20A0471420A0472020A04700207D
S11302A0A047A120A047C820A047DA20A0471220D9
S11302B0A0478120A047CF20A047D920A047F12004
S11302C0A047DB20A0474020A047A420A047A620A9
S11302D0A047AF20A047074B9847402380220649F8
S11302E00648074CA04710BD380100203109000022
S11302F0C1010000E901000089010000DC000020C8
S1130300E1030000F0B5C64600B582B00020104CF1
S1130310A0471020A047B020A0470E4D8023DB004B
S11303209846A8440C4C40270C4E6B46DA1D2B789B
S11303301370E78101232374226023812000B047D6
S11303400135A845F1D102B004BC9046F0BDC046C9
S1130350C10100004C01002038010020150A0000F2
S1130360F0B5DE4657464E464546E0B583B0070035
S113037089461500002600230193002926D0174B37
S11303809B469A461CE06B469988A0B20022D0474F
S11303900134A7420DD03319DB08EB5C4246A2437B
S11303A01341DB07EFD56B469988A0B20122D847E9
S11303B0EEE7019B01330193F6194A469A4205D0B0
S11303C0002407239846002FE5D1F2E703B03CBC94
S11303D090469946A246AB46F0BDC046890100004E
S11303E001608280C380042101844184053A12B2F1
S11303F08284053B1BB2C3848283C38301233822D6
S113040083540132835400230363094A4264094A32
S1130410C2630364036143618361C36450228354F0
S1130420436508328354044B186001207047C0466A
S1130430EF8B5E00FFFFFF0088000020054B1B6868
S113044002681A630421425E9A860621425EDA86B5
S11304507047C04688000020F0B5DE46474680B5A8
S113046085B080460D0016009B46824201DA904614
S11304700600AB4502DA2B005D469B46164B1B6813
S113048058229A5C920703D443460393124F1EE00A
S11304900C9A00925C6D5B46320029004046A047EE
S11304A0002801D05D45EFDD05B00CBC90469B46AD
S11304B0F0BD3B681B680C9A290020009847013462
S11304C024B2A642F5DA01352DB25D45ECDC039C7D
S11304D0B045EEDDF7E7C0468800002010B582B0D5
S11304E0074B1A68D388013B1BB29288013A12B2B7
S11304F0009000210020034CA04702B010BDC0466C
S11305008800002059040000F0B5DE4657464E46E8
S11305104546E0B589B00691029303005033D9B241
S11305204C2904D88B004149CB589F469420404B1A
S113053019688B8E002B72D0DC0805945B0701D000
S11305400134059436240B5F5843059C60430C6BBF
S1130550A44660440490002B61DD93B20793019399
S1130560334B9A469B4649E09920E0E78120DEE739
S11305709A20DCE78420DAE78E20D8E7E620D6E765
S1130580F820D4E76B460421595E20B253461B6819
S11305901B68129A984776080134A4B2013DADB2A3
S11305A0A7420ED0002D0CD043463342EAD06B460E
S11305B00421595E20B25B461B681B68029A984767
S11305C0E9E701239C46E144039B994509D04B4646
S11305D01E78002DF5D027000837BFB201239846B6
S11305E0E2E7019B01339BB20193114A1168079A18
S11305F09B1A9BB236200A5E934210DA6B461C8B20
S11306008D8E059B002BECD004998946013B9BB24F
S113061001338C469C44634604930393D7E709B0A3
S11306203CBC90469946A246AB46F0BD7C440000D3
S113063088000020F0B5D6464F464646C0B584B083
S113064003900E00541C05001B4B99461B4B984607
S1130650CA4613E0184B1B6804255D5F0DE0D36B9D
S1130660126C009232002900C04753461B6838229E
S113067099569B8EC9184D192DB20134631E1878F2
S1130680002813D00A28E5D04B461A683423D15EDB
S113069049190427D35F013B9942E0DD3923D3563E
S11306A0D18E5B189E1936B2039DD8E704B01CBCEA
S11306B090469946A246F0BD880000200905000036
S11306C030B583B001AC012363700022A2702370A3
S11306D021000C200A4DA84721002A20A847210008
S11306E02B20A84780225201064B9A61064B802298
S11306F0D2009A61802212019A6103B030BDC046D3
S1130700750C0000004400418044004180225201E5
S1130710014B5A617047C046004400418022520197
S1130720014B9A617047C046004400418022D200C8
S1130730014B5A617047C046804400418022D20078
S1130740014B9A617047C0468044004180221201E7
S1130750014B5A617047C046804400418022120117
S1130760014B9A617047C0468044004130B52E4B1E
S113077099680F25A94302242143996099682B485D
S11307800840C0210901014399605A68AA432243E1
S11307905A605968E022D2000A435A60596880229C
S11307A052020A435A605968802212030A435A606B
S11307B05A883F218A431B210A435A805A881C497C
S11307C01140802292000A435A8059888022D20123
S11307D00A435A80174A116A80231B010B43136290
S11307E0154B1A8804210A431A801A8813491140A8
S11307F08022D2000A431A801A8802210A431A80EE
S11308001A00D37BDB09012BFBD00B4BF9221A75A1
S11308105A7B10210A435A738021C902084A116085
S113082062B640225A7130BD000C0040FF0000FF48
S1130830FFF0FFFF00040040002C0042FFF8FFFF20
S113084000E100E0F8B5144A937B10210B43937345
S1130850124C2600503600270FE02368013B23602A
S1130860002B07D1E368002B00D09847AB68002B1E
S11308700ED02B601034B4420CD025002379002B09
S1130880F8D06379002BE8D0236801332360F1E7C3
S11308902F71EFE7F8BDC046002C00424C05002044
S11308A010B5002304280AD80301084C1951002A62
S11308B007D10001054B1818002383600133180089
S11308C010BD1800201881600123F8E74C050020B2
S11308D00023042816D802010B4B9B181A79012314
S11308E0002A0FD10201084B9B185B79002B04D11D
S11308F01300054A9B58002B04D00001024B181822
S113090001230371180070474C0500200001014BBE
S1130910C05870474C0500200023042804D8000167
S1130920024B1818C1600123180070474C050020C1
S113093030B58FB00200323AAF235B009A4200D93F
S113094064202D4B34215A5C0F24A24303242243F8
S11309505A545C5C0F222240302422435A544822C9
S1130960995C9C5C01252C439C540132995C995CF4
S11309702943995401AA214B5360002393601373B4
S11309801376802189031161012149429182D36147
S11309901362253153549362083153540131535433
S11309A001315354D73313860190733BD382144CD3
S11309B014492000144B984724680722E3691A421B
S11309C0FCD123680222134323600D4D28680F4B8A
S11309D098471F2318401E3B83400D4A1360E88844
S11309E000231021628B0A4204D101338342F9D3DC
S11309F0102363830FB030BD00440041480D000054
S1130A009C05002000100042A50C000061160000A7
S1130A1000E100E0F0B583B005000389002B2BD082
S1130A20C28901AB110A19705A70144B027B1A80E7
S1130A30027C5A800023012191425B4102AA944620
S1130A406344043B0D494B600D480E4B98472B897A
S1130A50002B0BD000240A4E0B4F2B68195D30007D
S1130A60B8470134A4B22B89A342F6D80448074BF3
S1130A709847022003B0F0BD0020FBE7C405002026
S1130A809C0500200D1100004911000031110000E7
S1130A90704700000C4B1B68002B06D1EFF310834A
S1130AA0002B07D00022094B1A70074A1368013340
S1130AB01360704772B6BFF35F8F0022044B1A7045
S1130AC00132024B1A70F0E78C00002090000020E5
S1130AD000000020084B1A68013A1A601B68002BBA
S1130AE009D1064B1B78002B05D00122044B1A7048
S1130AF0BFF35F8F62B670478C0000209000002027
S1130B00000000201723002901D01800704700229C
S1130B101F2800D8024A01238340D3600023F4E74E
S1130B200018004070B50022104B1A7000231049C1
S1130B301F25104E0D4C0AE00D4908E023780133BF
S1130B40DBB223700F2B10D800211F2BF4D92800FF
S1130B5018400122824008691042EFD00A619B00CC
S1130B609B59002BEAD09847E8E770BDD0050020D8
S1130B7000180040D4050020044A137802210B43D6
S1130B80137053785BB2002BFBDB704700180040F6
S1130B9000B583B0124A936940210B43936101A9C4
S1130BA000230B7005200F4B984705200E4B9847E8
S1130BB00E4A137801210B43137053785BB2002B58
S1130BC0FBDB0B4B19004031002204C39942FCD1DA
S1130BD01022084B1A60084B984703B000BDC0466A
S1130BE0000400403D1D0000B11C0000001800403E
S1130BF0D405002000E100E0790B0000F0B583B0DB
S1130C0005000C0001A900234B70CB7023790B70F5
S1130C10237A8B702078154B984700201F2D00D81D
S1130C20134807222A409200E77AA37A002B01D0C6
S1130C3008231F43EB089B00C31899690F269640AD
S1130C40B14397403A000A439A61637A002B06D174
S1130C5043690122AA409343436103B0F0BD426952
S1130C600123AB4013434361F7E7C046351E000040
S1130C700018004000B583B001AB80221A700A78D6
S1130C805A704A789A708A78DA701900014B98473A
S1130C9003B000BD351E000001680722CB691A426B
S1130CA0FCD17047F0B5D6464F464646C0B58AB02B
S1130CB006000F00140031600800A04B9847A04ABA
S1130CC0116A851C0123AB400B43136209A9237BE2
S1130CD00B701430C5B228009A4B984728009A4BE1
S1130CE09847207B0021994B98473B681C209B0721
S1130CF005D50AB01CBC90469946A246F0BD3B6897
S1130D001738DB07F5D430688C4B994698470500B3
S1130D108F49904B9847AD008F4BEE5000233376AC
S1130D20737600257383B3832522B5543362143359
S1130D303B60336898461800C8478146802308AA58
S1130D401370557001239370D570E069276A0028E9
S1130D5000D1AFE008AB1870022308AA5370000C4E
S1130D60C0B211007D4B9847002F00D1A7E008AB1B
S1130D701F70022308AA53703F0CF8B21100774B7E
S1130D809847A38AF380E38A3381237E8022002B51
S1130D9004D1734B9B789B07DB0FDA01A1682369AD
S1130DA00B4313432422A25C002A02D08022D205E2
S1130DB01343A26A13432C22A25C002A03D180228B
S1130DC09204914202D18022120513432D22A25C87
S1130DD0002A02D08022120413432E22A25C002A8D
S1130DE002D08022D2031343424612681343424680
S1130DF0136080235B00536048461430C0B2594BE3
S1130E0098470790FA239B0022685A4391466368E7
S1130E109A46554DA847009001914B465800A84763
S1130E2002900391208EA847049005914F4F504A99
S1130E30504B00980199B84702000B00049805999B
S1130E40B8474D4E00224D4BB0470490059148469B
S1130E50A84702000B0004980599B84702000B004C
S1130E60474D00980199A847029A039BB047002276
S1130E70444BA847029A039B434DA847434B9847CA
S1130E80050080239B04A2689A421ED003004020E0
S1130E90FF2D00D92DE700240020FF251D40240646
S1130EA025430004FF231B04184005434346DD602B
S1130EB000201EE700214046354B98474AE70121B0
S1130EC04046334B9847070051E7FA26B60053468D
S1130ED05E430098019902000B00274CA047009044
S1130EE001913000204B984700222A4BB84702005A
S1130EF00B0000980199244CA0470022214B204C60
S1130F00A047224B9847041E0CD031000798224B6F
S1130F1098470238001B2B00FF2D0CD8FF28BCD9A2
S1130F204020E6E67100481E079B9C4660441A4B2D
S1130F3098470138EFE74020DBE6C046E91500009A
S1130F40000400403D1D0000B11C000025140000F9
S1130F50391200002516000014060020351E00007A
S1130F6000200041591D0000493B0000B52F00003E
S1130F7095D626E80B2E113E2D23000000002440B8
S1130F80B53400000000F03F4D290000E13A0000B4
S1130F9071140000000008401522000003681A7E46
S1130FA0920707D502221A765B8B9B074120DB1739
S1130FB0184070475A8B520706D55968C0229202CE
S1130FC00A435A601820F4E70020F2E730B50268BB
S1130FD0002301240225117E21420BD1117E2942D6
S1130FE006D101339BB201899942F4D8122002E060
S1130FF0002000E0002030BD10B504686268802342
S1131000DB02134363606162024B9847012323763A
S113101010BDC046CD0F0000F0B5DE4657464E4623
S11310204546E0B583B006000F0005684C88324B96
S113103098477B7A002B1DD16B68304A13406B6054
S11310403B7A002B1BD03B885B007A7A92031343D4
S11310508022120213436B623000294B984701909F
S1131060002813D0019803B03CBC90469946A24690
S1131070AB46F0BDB97A3000224B9847DCE73B8899
S11310805B007A7A920313436B62E5E730001E4BF0
S11310909847031E0190E5D1A046002420339946C9
S11310A0154B9B46164B9A46444515D06B8B4A46C6
S11310B013421DD03000D8477B681A5D2823EA54B8
S11310C03000D047002806D16B8B01345B07EBD589
S11310D01E23019300E00190B37A002BC2D03000AC
S11310E0054B98476A68C0239B0213436B60B9E7BA
S11310F041230193B6E7C046990C0000FFFFFBFFB4
S1131100CD0F0000F90F00009D0F000010B5838B78
S11311109BB20522002B01D0100010BD8372013355
S1131120C372024B98470200F6E7C046191000004C
S113113010B50468034B98476268C0239B021343AD
S1131140636010BD990C000070B504000E000568C2
S1131150034B98472823EE542000024B984770BD58
S1131160990C0000CD0F000001680722CB691A42D8
S1131170FCD1704770B5040006683268458B838BD8
S1131180ED1AADB2838B013B9BB2838313011DD552
S1131190C37A002B03D0838B9BB2012B10D0A38B7B
S11311A09BB2002B02D1A37A002B1CD12000124B3E
S11311B09847236A5D192823F35CDBB22B7070BD5A
S11311C072688023DB0213437360E8E7C37A002B61
S11311D0E5D0838B9BB2002BE1D172688023DB02C4
S11311E013437360DBE72000034B98477268C02306
S11311F09B0213437360D9E76911000070B50400C2
S113120005686B8B5B0703D51E222523C25470BD72
S1131210468B838BF61AB6B2838B013B9BB28383D6
S1131220044B9847236A9E193378DBB22822AB54C7
S1131230EDE7C0466911000070B58000754BC458D5
S113124025682B681B01DA0F637E267E1E40638BA4
S11312509BB2002B03D1A38B9BB2002B23D1638BB6
S11312609BB2002B08D0A38B9BB2002B04D1253357
S1131270E35C052B00D16DE0638B9BB2002B24D083
S1131280A38B9BB2002B20D06B8B9B0600D581E0F7
S1131290002A04D0A38B9BB2012B00D17AE0412217
S11312A02523E25411E02B7EDB0707D501232B769F
S11312B06B8B9B072ED541222523E254A38B9BB233
S11312C063832523E35C052B38D0638B9BB2002B0F
S11312D007D0A38B9BB2002B03D12533E35C052BF2
S11312E064D02523E35C052B13D02523E35C002B7A
S11312F00FD003232B7500236383A3832533E35C7F
S1131300412B03D0A37A002B00D075E0730700D5DE
S11313107BE070BD6B8B5B07D0D518222523E2548C
S11313200023A383A37A002BC8D020003A4B98470C
S11313306A68C0239B0213436B60BFE71F33E35CFF
S1131340002B03D02000354B9847BEE72000344BD8
S11313509847BAE71F33E35C002B00D08CE70333D4
S11313602B750023638325330022E254A37A002BD8
S113137007D101232B76F307A7D5E368200098470C
S1131380A3E72000244B98476A68C0239B021343B9
S11313906B60F0E72423E35C002B03D12000204B97
S11313A0984792E720001D4B98478EE71F33E35C74
S11313B0012B96D12B7E9B0701D502232B76032389
S11313C02B750023638325330022E254B30703D52E
S11313D02423E35C012B0BD0F30700D481E72423FF
S11313E0E35C002B00D07CE7E3682000984778E7B3
S11313F023692000984774E72000074B98476A68E0
S1131400E023DB0213436B6080E7636920009847A5
S11314107FE7C04614060020691100007511000022
S1131420FD11000010B582B004000E4B1B78002B98
S113143007D0002905D10B4B5B78834210D01D20C7
S11314400CE001A90C701320074B98471320074B9D
S11314509847044B5C7001221A70002002B010BD42
S11314600020FBE7940000203D1D0000B11C00009B
S1131470404B984231D00AD93F4B98424DD03F4B14
S113148098425AD03E4B984237D0002070473D4B8B
S113149098420CD03C4B9842F7D1012917D000292F
S11314A05DD0022915D0032915D00020EEE70129CB
S11314B007D0002951D0022905D0032905D00020E6
S11314C0E4E73248E2E73248E0E73248DEE7324810
S11314D0DCE73248DAE73248D8E7012907D00029A7
S11314E03FD0022905D0032905D00020CEE72D489E
S11314F0CCE72D48CAE72D48C8E7012907D00029C1
S113150031D0022905D0032905D00020BEE72848A0
S1131510BCE72848BAE72848B8E7012907D00029DA
S113152023D0022905D0032905D00020AEE72348A3
S1131530ACE72348AAE72348A8E7012907D00029F4
S113154015D0022905D0032905D000209EE71E48A6
S11315509CE71E489AE71E4898E71E4896E7032032
S113156094E71D4892E71D4890E71D488EE71D4803
S11315708CE7C0460010004200180042001C0042E4
S11315800014004200080042000C00420300050061
S113159003000600030007000300010003001E000F
S11315A003001F000300090003000A0003000B00EE
S11315B003001100030012000300130003000D00D8
S11315C003000E0003000F000300170003001800BF
S11315D003001900030004000300080003001000C6
S11315E003000C000300160030B587B00B4B6A46AD
S11315F032CB32C232CB32C2009B83420BD00123A6
S11316009A0069465258824206D00133062BF7D11C
S1131610002007B030BD0023D8B2FAE7C071000043
S113162070470000F0B50A4B1B78002B0CD1094F12
S1131630094E0A4D0024DE515A1914600433182B44
S1131640F9D10122024B1A708000024BC150F0BD47
S113165096000020980000202116000014060020A7
S113166000B583B009236A46137001335370013304
S113167093700133D3700133137101335371034BEE
S113168098476B46185603B000BDC046E9150000E4
S113169010B5024B1B680020984710BD980000202D
S11316A010B5024B5B680120984710BD98000020DC
S11316B010B5024B9B680220984710BD980000208B
S11316C010B5024BDB680320984710BD980000203A
S11316D010B5024B1B690420984710BD98000020E8
S11316E010B5024B5B690520984710BD9800002097
S11316F010B5082803D880001C4B1B589F460020B7
S113170032E01B4B18692FE01A4B1B6A9B059B0F99
S11317101948D84028E0164B586925E0144B1B683B
S113172000209B0720D513491022CB681A42FCD015
S11317300F4B1A6824231340042B01D00F4813E0E5
S113174000200F4B98470A4B9B681B041B0C584303
S11317500AE05023074AD35C00205B0704D5044BFE
S1131760D86801E08020000210BDC046D871000096
S1131770B00000200008004000127A00006CDC0277
S1131780591D000070B50C490B6A047885784078BF
S11317900122104080014026B34303432A40D20172
S11317A08020834313430322224012020348034050
S11317B013430B6270BDC04600080040FFFCFFFFEE
S11317C0F0B5264B1B8A5D056D0F42780F2414403B
S11317D0027851424A41D2B286784168204FB942D8
S11317E00DD9204FB94233D91F4FB94232D91F4FB7
S11317F0B94231D91E4FB94202D8042500E0002570
S1131800477A007A84461B48016101219000042232
S113181093431A00024363460B409B0140208243DA
S11318201A4338000840C00180239A43130003433D
S11318302D02114A13402B433140C9020F4A134071
S11318400B4324031B051B0D2343044A1382F0BDE1
S11318500125D5E70225D3E70325D1E70008004099
S113186080841E0000093D0000127A000024F40068
S11318700048E801B0000020FFF8FFFFFFF7FFFF7A
S113188010B5037A9B061B0C42899205920D1343F3
S113189018494B608379C279134342888488224370
S11318A013434278D20113430B600378042B11D005
S11318B0202B0ED1037B9B06028A1343C289120498
S11318C00D490A4013430B4A936011680B4B0B43B9
S11318D0136010BD037B9B06028A1343C289120462
S11318E005490A401343034A9360136804210B43D8
S11318F01360EEE7B00000200000FF0324040000A2
S1131900082803D88000254B1B589F46172044E025
S1131910234A136A02210B43136200203DE0204A4C
S1131920936902210B439361002036E01C4A138A19
S113193002210B43138200202FE0194A938A0221CB
S11319400B439382002028E016490B6802221343BC
S11319500B60134B9A8419000E32CB681A42FCD0E8
S1131960104A91680E4BD96252689A6200229A8496
S113197019001032CB681A42FCD00A4B1B689BB288
S1131980074A9384002008E0054944228B5C022026
S113199003438B54002000E000207047FC710000DA
S11319A000080040B000002070B58CB0C222D20004
S11319B0464B9A60464A53681E218B431A390B439F
S11319C0536002236A4613700024424DE0B2694614
S11319D0A8470134252CF9D109A80023037083708A
S11319E0037243720F3343703B4B43603B4B984746
S11319F000203B4B984735490122CB681A42FCD062
S1131A00324A138A882109010B43138204AB002153
S1131A100022598099809A71DA713F31598139399C
S1131A201982023919705A702E4B1B689B0E3F2B7A
S1131A3049D004A80372032303731C33C3812A4BC4
S1131A40984703A800244470012585700470274B2F
S1131A5098470620224EB047254B984701956B4680
S1131A605C701C725C721C7069460120214B9847A3
S1131A700120214B98476B461D7069460020154B89
S1131A80984700201D4B98470720B0470F49D022A4
S1131A90CB681340D02BFBD1194A00231372537225
S1131AA09372D372012201926A4653701372537275
S1131AB007331370694600200E4B984700200E4BE5
S1131AC098470CB070BD203BB3E7C0460008004007
S1131AD0004000413D1D000000127A00C1170000C3
S1131AE0011900002460800081180000851700009F
S1131AF0051B0000291B0000E11B0000B11C0000B5
S1131B0000040040064A936908210B4393610122B3
S1131B10044B1A7019000B781342FCD17047C0466D
S1131B2000040040000C004070B5060004000D786D
S1131B302D0205434B78002B02D08023DB021D438A
S1131B404B7A002B02D080231B031D4348680128D5
S1131B5010D9431E184234D1022830D9022300225E
S1131B6001325B009842FBD81202324314008023F6
S1131B705B031D430B7A002B02D080239B031D4380
S1131B80134A53785BB2002BFBDB124B9847124B82
S1131B901E700F4A53785BB2002BFBDB0C4B9C602E
S1131BA01A0053785BB2002BFBDB094A536880218F
S1131BB049020B401D435560084B984770BD0022F5
S1131BC0D2E70402344380239B021D43D2E7C0467C
S1131BD0000C0040950A0000080C0040D50A0000E3
S1131BE010B504000B4A53785BB2002BFBDB0A4BA5
S1131BF098470A4B1C70074A53785BB2002BFBDBF7
S1131C00044A516880235B020B435360044B98479A
S1131C1010BDC046000C0040950A0000040C0040B2
S1131C20D50A000070B504001A4A53785BB2002B41
S1131C30FBDB194B9847194B1C70164A53785BB25F
S1131C40002BFBDB134E7068C004C00E144B984786
S1131C500500124B1C707668F602F60F114B1C70CF
S1131C600C4A53785BB2002BFBDB0A4B9C682402C2
S1131C70240C0D4B9847002E07D1012C07D92100C5
S1131C8028000A4B9847050001E00134E54028008C
S1131C9070BDC046000C0040950A0000040C0040D2
S1131CA0F1160000080C0040D50A000015220000BF
S1131CB010B50400064B9847064B1C70064A53881F
S1131CC08021C9010B435380044B984710BDC04683
S1131CD0950A0000020C0040000C0040D50A0000E8
S1131CE010B504000F4B98470F4B1C700F4A5388D4
S1131CF01B05180F53880E490B40538053880D4918
S1131D000B40538011008022D2014B881342FCD136
S1131D1006494A8803020648024013434B80064B97
S1131D20984710BD950A0000020C0040000C0040CA
S1131D30FFF0FFFFFFBFFFFFD50A000010B50C78CE
S1131D4024020443024B9847A4B2024B5C8010BDAA
S1131D50E11C0000000C004010B50400064B98473D
S1131D60064B1C70064B5C882405240F054B9847D2
S1131D702000054B984710BD950A0000020C004056
S1131D80000C0040D50A0000251C000030B5D378B3
S1131D90002B35D11378802B29D01B0680246402B4
S1131DA0234354780225AC4306D19478002C20D1E7
S1131DB08024A402234341605478013C012C1CD9A3
S1131DC00D042D0CA024E4052C431C4384620D0C4B
S1131DD0D02424062C431C438462D478002C22D1C2
S1131DE05B031CD59378012B1ED0416117E00023BF
S1131DF0D7E7C024E4022343DDE70D4C2340DFE7AB
S1131E0041600C04240CA023DB05234383620C0CE7
S1131E10D0231B0623438362D378002B03D153784A
S1131E20013B012B02D930BD8161F8E78160FAE7FB
S1131E30FFFFFBFF10B50A00C1090023002904D1EC
S1131E404309DB0105498C4663441F2420400121DA
S1131E5081401800024B984710BDC0460044004121
S1131E608D1D00007047000010B5054B9847054BC9
S1131E709847054B9847054B9847054B984710BD25
S1131E80A9190000910A0000651E0000910B0000D2
S1131E90651E0000FEE70000F8B52A4A2A4B9A4264
S1131EA011D01A00294B9A420DD2294A03339B1AA6
S1131EB09B0801339B000022234822498C588450FC
S1131EC004329A42FAD1234A234B9A420AD2D34388
S1131ED021495B1803218B4304339B18002102C260
S1131EE09342FCD11D4AFF211D4B8B439360FD3966
S1131EF090235B001B4AD1501B4AD3780325AB4384
S1131F0002242343D370D3780C27BB4308263343DE
S1131F10D370164B987B3022904320221043987341
S1131F20997BB943314399739A7BAA4322439A73A9
S1131F300F4A536880210B4353600E4B98470E4B56
S1131F409847FEE718770000000000206C0000208E
S1131F50040000206C0000203006002000ED00E0AA
S1131F6000000000007000410050004100480041A2
S1131F7000400041F53B0000E12000000300064A58
S1131F801268002A04D0044A1068C318136070470A
S1131F900249014A1160F6E7C800002030260020FB
S1131FA010B5144B1B78002B1BD1134B98470028FA
S1131FB01ED001220F4B1A70104A136801331360AC
S1131FC00F4B1B889BB2FA225200934204D9B93AB0
S1131FD0FF3A0B4B1A800BE096229200084B1A80B2
S1131FE006E0054B9847002802D10022014B1A70E5
S1131FF010BDC046D300002075010000CC000020B5
S11320000400002010B5184B1B78012B1CD0002BAA
S113201012D0022B20D0154B1B889BB2144A128875
S11320209A4208D0114B198889B2114B19800122A8
S11320300020104B984710BD0F4B98470F4B984703
S11320400122094B1A70E6E70D4B98470D4B984750
S11320500222054B1A70DEE70B4B98470B4B98474F
S11320600022014B1A70D6E7D200002004000020A1
S113207002000020A10800001D0700002D07000039
S11320803D0700004D0700005D0700000D0700003C
S113209010B58AB0002300933C3378223221052006
S11320A0084CA047084B1A68084903A8084B9847EE
S11320B00848094B984703AA32210520074B984743
S11320C00AB010BD59040000CC000020307200009A
S11320D03D3C0000B84500003D040000350600000A
S11320E070B5314B9847314B9847314B9847002096
S11320F0304B9847304B9847304B98473048314BDA
S11321009847314A40218020304B9847304B9847BC
S11321100022FA21C90002202E4B984702202E4BA0
S113212098472E4C0220A0470028FBD12C4B9847FF
S11321302C4B198889B201220020264EB0472A4927
S113214000202A4DA8470020234CA04701220A2141
S11321500120B04726490120A8470120A04725486F
S1132160184CA0470020244B9847244A0A210520F4
S1132170234DA847234A1C214120A847224B9847B6
S1132180134B98470E48A047204E214C2500328817
S113219023689A42FCD02A681C4B1A801A4B984731
S11321A00B4B9847F3E7C046691E0000C1060000C8
S11321B061020000150100006D0700000D0700001A
S11321C0B84500003D0400004472000061030000B3
S11321D005030000A1080000D10800000D0900005B
S11321E0E901000004000020052000001909000096
S11321F0A11F0000B0450000DD04000020720000B3
S1132200350600002872000091200000D000002054
S1132210CC000020002243088B4274D303098B4274
S11322205FD3030A8B4244D3030B8B4228D3030CA2
S11322308B420DD3FF22090212BA030C8B4202D344
S11322401212090265D0030B8B4219D300E0090A6C
S1132250C30B8B4201D3CB03C01A5241830B8B4275
S113226001D38B03C01A5241430B8B4201D34B035E
S1132270C01A5241030B8B4201D30B03C01A5241C3
S1132280C30A8B4201D3CB02C01A5241830A8B4248
S113229001D38B02C01A5241430A8B4201D34B0231
S11322A0C01A5241030A8B4201D30B02C01A524195
S11322B0CDD2C3098B4201D3CB01C01A5241830949
S11322C08B4201D38B01C01A524143098B4201D383
S11322D04B01C01A524103098B4201D30B01C01AAE
S11322E05241C3088B4201D3CB00C01A5241830828
S11322F08B4201D38B00C01A524143088B4201D355
S11323004B00C01A5241411A00D2014652411046B4
S11323107047FFE701B5002000F006F802BDC04693
S11323200029F7D076E770477047C046F8B54546B0
S1132330DE4657464E460C03E0B54E00C90F8846AC
S11323400D00610A440F0C43C70019035800DB0F4A
S11323509B464B0A510F0B43760D400D1900D200DA
S1132360D84500D1AEE0351A002D00DCF6E0002897
S11323700FD1134300D1DBE06B1E002B00D037E1FB
S1132380BA1A9742BF41641A7F42E41B0126170020
S113239024E0C64B9E424DD080231B041943382DA4
S11323A000DD07E11F2D00DD38E12020431B9A46A4
S11323B00B0050468340994613004846EB401843AF
S11323C0030050468240501E8241E9401A43BA1A23
S11323D0611A9742A441170064420C1B230262D580
S11323E06402650A002D00D1DFE0280001F0E4FB5F
S11323F00300083B1F2B00DDD2E020223C00D21A50
S11324009D40D4409F4025439E4200DDC4E09E1B76
S1132410731C1F2B00DDF1E0202238002900D21AA2
S1132420D840914097402C000143781E8741DC40FE
S113243000260F437B0709D00F233B40042B05D014
S11324403B1DBB42BF417F42E4191F0023022CD530
S1132450964B01369E4200D19AE04546944BFF08C4
S11324601C406007760564020743240B760D0021A7
S11324702403230B0C0D8F4A24051C4314403305FD
S113248023435B00ED075B082B43380019003CBC79
S113249090469946A246AB46F8BD6446044300D133
S11324A011E2040067467B07C6D145466007FF0872
S11324B00743E4087D4B9E4230D024037605240B69
S11324C0760DD4E7331A9A46002B78DD002831D0F4
S11324D076488642AED08020000401435346382B10
S11324E000DCE9E00A43511E8A410021D219BA42B4
S11324F0BF4109197C4217000C192302D3D56B4B39
S113250001369E4200D13AE10120694B1C407B0810
S113251007401F43E007074364088BE723003B435E
S113252000D1CBE18022120314432403240B9EE741
S11325302E007FE70800104300D1B4E0581E0028A5
S113254000D0DEE0BA18BA429B4164185B42E4183A
S1132550170001262302A6D50226D5E7002D6ED149
S1132560701C4005400D012800DCF9E0B81A8446CF
S113257087428041E51A40422D1A280200D489E09E
S1132580D71BBA4292411C1B5242A51AD84629E7CE
S11325904546002400276AE7454CF61A2C4049E7D3
S11325A03D002838854000272EE7380001F004FB61
S11325B020301DE70A43511E8A41002107E7002B02
S11325C000D0F3E0701C43055B0D012B00DCADE093
S11325D0364B984200D1D1E0BA18BA42BF416418D0
S11325E07F42E419E707520817436408060021E70D
S11325F02E48854200D193E01D00D0E629001F3EFD
S1132600F140202B00D18DE04022D31A9D402F436E
S11326107D1EAF4100240F43002644E72B00080031
S1132620203BD8400300202D00D17DE04020451BF5
S1132630A9400A43511E8A4100211A43C7E6002ECD
S113264050D01A4EB04257D080266B429946360479
S113265034434B46382B00DDD6E01F2B00DD35E13B
S11326602026F51A2600AE40B2463E00DE40AC46B7
S1132670350056462E436546AF407D1EAF41DC40D3
S11326803743D71BBA4292410C1B5242A41A06008C
S1132690D846A3E6644667462C4300D0A2E600254C
S11326A00026002706E71E00C4E6C046FF07000018
S11326B0FFFF7FFFFFFF0F801F2B63DC2020C31A67
S11326C0080098409C46834653461000D8400300B7
S11326D05846184363469A40531E9A415346024350
S11326E0D94003E726003E4306D0EB439946002B2E
S11326F0C7D0944EB042ACD10C0017000600D846A7
S113270098E6904B9A450BD08246E7E6002800D025
S11327109EE01800104300D1E9E01C001700D846E1
S1132720884E87E6002572E7002182E723003B43B9
S1132730002E00D0ABE0002B00D1E7E00B001343E8
S113274000D177E6BA18BA42BF4164187F42E4194F
S1132750230200D4F2E07C4B17001C40060069E61B
S113276020003843002ED1D100285BD11C00144333
S113277000D1A8E01C001700D8465BE60600002440
S1132780002797E650460B002038C340994653462D
S1132790202B00D195E0402350461B1A99400A4350
S11327A0511E8A414B4600211A439FE6002E30D128
S11327B026003E4367D0DB439A46002B1CD0614E73
S11327C0B04260D05346382B00DD96E01F2B00DD6D
S11327D09FE02026F31A26009E409C46B3465346AB
S11327E03E00DE4033005E461E4363469F407B1E30
S11327F09F415346DC403743BF18974292416418C7
S11328005242A418060078E627437C1EA741002400
S113281037E74C4EB04236D080265B4236049A46A7
S11328203443CFE71800104300D103E6B81A8446B6
S11328306745AD41E01A6D42401B050200D42CE609
S1132840D71BBA4292411C1B5242A41AD846F1E546
S11328501800104300D163E7F80867070743802096
S1132860E4080003044208D0DD08054205D1D2087B
S1132870590711430F002C00D8467B0FE4001C437A
S1132880FF00304ED6E50C0017000600D2E5002B01
S113289038D00B00134300D142E7F8086707074319
S11328A08020E40800030442E7D0CB080342E4D1CB
S11328B0D208490711430F001C00DEE7002700245B
S11328C0D5E500216BE700250027F3E54E462500FA
S11328D0203EF5404B462E00202B2DD04025ED1AEE
S11328E0AC4027437C1EA74100243743C9E680241B
S11328F000252403134E0027DCE527437C1EA74153
S1132900002479E70C0017000E4E93E50C00170025
S113291090E556462300203EF34099465346202B2B
S11329200ED0402356469B1B9C4027437C1EA74148
S11329304B4600241F435FE70024D2E71700B2E5AB
S11329400024F2E7FF070000FFFF7FFFF0B55746C2
S11329504546DE464E46E0B54C000E0387B083463E
S113296092461D008046360B640DCF0F002C4FD0CD
S11329706F4B9C4235D08023420F1B04F600134357
S113298033439946C30098466A4B00269C4600236D
S1132990644403932B031B0B9B466B00ED0F5046C3
S11329A05B0D01955ED0624A934253D05A46D100E2
S11329B08022400F120402430A4393465246D10038
S11329C05C4A94460022634438006840844602907E
S11329D0E41A16430F2E00D9B4E0574BB6009B59A6
S11329E09F460300334399466CD100239846023333
S11329F008260393CEE7CB464146039A0197022A61
S1132A0065D1019B4A4C9C460023002298466BE00A
S1132A100300334399464ED0002E00D1BCE1300070
S1132A2001F0CAF803000B3B1C2B00DDACE11D22B6
S1132A30D31A5A460100DA4008398E401300334352
S1132A4099465B468B40984600233C4C0026241A4A
S1132A5003939FE751465A46114329D100229346D6
S1132A600232B1E7594601431ED05B46002B00D128
S1132A709EE1584601F0A0F803000B3B1C2B00DD3F
S1132A808FE102005946083A91408B461D21CB1A2A
S1132A905146D9400B0059460B4351469B46914041
S1132AA0264B00221B1A8FE7002301229B468BE74B
S1132AB05146032288E70023984601330426002464
S1132AC0039367E70323B14603930C2662E7032AC3
S1132AD000D15CE2019B012A00D0E4E113409C4652
S1132AE0002300240022984600211203130B0A0D30
S1132AF012051A432305124C4046224013436246F2
S1132B005B00D2075B081343190007B03CBC904636
S1132B109946A246AB46F0BD002380229C46120390
S1132B209846034CE0E70023014C00229846DBE77B
S1132B30FF07000001FCFFFF447600000DFCFFFFCF
S1132B40FFFF0F80D94500D939E100D134E10023DA
S1132B5046464D469A46013C5B460A0E1B021A4302
S1132B600B02170C039313041B0C39002800904626
S1132B700193FFF74FFB0200019B83465A43280051
S1132B8039009146FFF7CCFB350C09040D43A945E8
S1132B900DD95B464544013BA84500D93AE1A94516
S1132BA000D837E102235B429C464544E3444B464C
S1132BB0EB1A390018000493FFF72CFB019B050066
S1132BC04343390004989946FFF7AAFB33040904E8
S1132BD01B0C0B43994509D943446A1E984500D9F7
S1132BE01AE1994500D817E1023D43444A469B1A2D
S1132BF05A4612042A4303999346100C0A0C914630
S1132C0009045A46090C4E460D001204120C4543A1
S1132C10059151437243704352190E0CB2189542F8
S1132C2003D980256D02AC466044150C09041204D6
S1132C30090C28185218834200D2CEE000D1C8E013
S1132C401D1A53469E1AB24592415242AB1A9A46F5
S1132C50984500D117E139001800FFF7DBFA019B12
S1132C6005004343390050460493FFF759FB049889
S1132C700B04310C1943884209D941446B1E884521
S1132C8000D907E1884200D804E1023D4144049B95
S1132C90CB1A180039000493FFF7BCFA019B824653
S1132CA04343390004980193FFF73AFB01980B045E
S1132CB03104090C194388420DD953464144013B60
S1132CC0884500D9E8E0884200D8E5E002235B4269
S1132CD09C464144E244019B2D04CE1A51462943AB
S1132CE0059D4F462A000B04080C1B0C5A43454310
S1132CF07B4378435B19170CFB189D4203D980254D
S1132D006D02AC4660441D0C12041B04120C2818FE
S1132D109B18864200D293E000D18EE00123194330
S1132D20A04BE318002B00DC99E04A0700D09EE09A
S1132D305A46D20106D55A469B4B1A4080239346E5
S1132D40DB00E318994A934268DD0123029A984C08
S1132D501A400023944698460022C5E680224B463A
S1132D60120313420AD05B46134206D11A431203DC
S1132D70120BAC4688468E4CB6E64B461A431203F9
S1132D80120BBC468A4CAFE603005A46283B9A40D5
S1132D9000239146984657E6584600F00DFF203030
S1132DA040E603005246283B9A400021934677E6CA
S1132DB000F002FF20305FE6884500D2C7E64B46AC
S1132DC0DE075D0843465B081E434346DB079A461D
S1132DD0C2E60025924500D333E7039E5946B44624
S1132DE0E244B245AD416D424544EB180139984582
S1132DF007D2984200D97FE000D1BCE01D1A8B466F
S1132E001FE79845FAD1039D5545F2D943468B46B1
S1132E101D1A16E79B46CAE61500E7E65A46C90896
S1132E2052070A435B0590465C0D5A4601230299FA
S1132E3052021940120B8C4656E6002B00D16FE764
S1132E4046444A1EB04529D91100864200D065E7A0
S1132E50039A934200D061E762E7012149420120CD
S1132E60C21A382A21DD029B03409C4638E60F2211
S1132E700A40042A00D15BE70A00111D91429241E5
S1132E805242934454E7474BE318002BE5DD0122FB
S1132E905242F2E71D00FAE69A461CE7B04239D8DE
S1132EA06ED011003AE702933AE71F2A3CDC202354
S1132EB09B1A0C005846994098404B1E99415B461A
S1132EC0D440D340204308431A00430709D00F23BA
S1132ED00340042B05D00100081D88429B415B423E
S1132EE0D21813023AD50123029A01241A4000236E
S1132EF0944698460022F7E5022149428C46039DF8
S1132F00E344AC46E244AA45AD416D424544ED1864
S1132F102D1A96E68A1E03994D008D428941494235
S1132F204144761803958FE71F204042C31A584640
S1132F30D8400300202A28D040205D46821A9540BC
S1132F4029434A1E91411943072300220B4009D00B
S1132F500F2300220B400800042BBDD101005307AE
S1132F605202120BC908194301238846029900240E
S1132F7019408C46B8E55245BED88B46002560E61C
S1132F80039D9D42C6D3110062E70025D8E7802245
S1132F905B4612031A43019B1203120B9C4688469C
S1132FA0034CA1E5FF030000FFFFFFFEFE07000046
S1132FB0FF070000F0B557464546DE464E46E0B5ED
S1132FC00C0398464E00230B87B0070092469B469D
S1132FD0760DCD0F002E6BD06D4B9E4235D08024E4
S1132FE05B46420F2404DB0014431C43C300994690
S1132FF0684BA3469C46002300276644029343463D
S11330001C035A00DB0F5046240B520D984600D186
S113301076E05F4B9A426DD08023410F1B040B4333
S11330205C49E4008C461C43C300002062444146D2
S1133030B6186940721C0191944607430F2F00D9BA
S1133040B0E0554ABF00D25997465B4603439946C0
S113305000D087E000239B46023308270293CEE783
S113306042460192022867D0032800D10EE20128CB
S113307000D062E100230024002299460199014016
S1133080CDB2002112030B0D120B1B051343434A4F
S1133090240513401C436400ED0764082C43484690
S11330A0210007B03CBC90469946A246AB46F0BD11
S11330B0034399464FD05B46002B00D189E1584623
S11330C000F07AFD03000B3B1C2B00DD7AE11D228E
S11330D0D31A3A0001005C46DA4008398C401300E8
S11330E08F4023439B46B94600232D4E0027361AB2
S11330F0029384E7534623432AD10024022096E70F
S11331005346234320D0002C00D157E1200000F087
S113311053FD03000B3B1C2B00DD49E11D21CB1AA1
S113312051460200D9405346083A944093400C4318
S11331301B4A121A00207AE70125019B144C1D40FA
S11331400023002299469CE70024002201206EE718
S1133150534603206BE700239B46013304270026D4
S113316002934CE7032381460C27029347E780220E
S11331700023002512039946054C82E75C464B4622
S113318002986FE75C464B46019502986AE7C04691
S1133190FF07000001FCFFFF84760000FFFF0F80A3
S11331A00DFCFFFF4A464946170C1A0C1B041B0C66
S11331B008041900000C41431500884619007D439A
S11331C07943039589462900150045434D440295EA
S11331D045462D0CAA46029D5544A94506D98A4662
S11331E0802149028946CA4451460391290C04911D
S11331F0414609042D04090C88462900250C2404A1
S11332004144240C0591210041438846210079431F
S11332108A466843414650448146080C48446F43FB
S1133220824503D98021490289464F44010C8946CD
S113323039004944029141460F0404993F0C8846E1
S11332400004C01980444146049159460F0C0904F6
S1133250090C884659438A463900514389464146F8
S11332604A435146090C8B467B43D2185A44934235
S113327003D980235B029B46D94451460904090CB7
S11332808A46414661437C43130C12044B44524426
S1133290A1468A463C0041466C434D4351464D4449
S11332A00F0C7D19A94503D980214902884644445D
S11332B0049F0399B84641448B468345804141426B
S11332C08846514608042F04000C3F1858460299BA
S11332D010188946904292414F44BA465242994648
S11332E09346C244D144CB448F42BF41C245894135
S11332F099459B41934592417F4249422D0C52424C
S11333000F435B4213437F19FF185B463C19DB0DE7
S1133310059A64021C43430213435D1EAB415A46A3
S1133320C00D034352021343E20156D501205A084B
S113333003401343E207134364085A4860440028D7
S11333404DDD5A0709D00F221A40042A05D01A1D50
S11333509A429B415B42E4181300E20104D58020A9
S1133360514AC00014406044504A904200DDE3E6F4
S11333700125DB0862071A436402019B9146220B74
S11333804405640D1D407CE6802259461203114217
S113339008D0144206D122431203120B4546994623
S11333A0434C6EE65B461A431203120B404C68E62C
S11333B003005446283B9C400023B9E600F0FCFB84
S11333C02030A6E60300283B9F400023BB469946D5
S11333D08AE600F0F1FB203074E6B446ADE701253F
S11333E02A1A382A06DD019B00241D4000230022EE
S11333F0994646E61F2A21DC20252000AD1A1E002E
S1133400AB40A840D6405D1EAB4130431843D44086
S1133410430709D00F230340042B05D00300181DD4
S113342098429B415B42E418230221D50125019B6C
S113343001241D4000230022994622E61F25210075
S11334406D42281AC1400800202A1DD05F35AA1AEF
S1133450944023435C1EA341072503431D400022DF
S1133460002D09D00F2200241A401800042AD6D1B6
S1133470030065076402220BDB082B4301259946F0
S1133480019B00241D40FCE50024E2E78022012585
S11334901203224301991203120B0D409946044C66
S11334A0EFE5C046FF030000FFFFFFFEFE0700003C
S11334B0FF070000F0B54646D6464F460C03C0B59C
S11334C0CD0F4E00610A440F0C43C1005800400D5B
S11334D084468A460F001903500F490A0143C6481F
S11334E0760DA846DB0FD200844500D1D8E0012038
S11334F04340AB4200D1A6E06046351A002D00DC03
S113350005E1002810D10B00134300D1D7E06B1E56
S1133510002B00D04BE153469F1ABA458041641AF0
S11335204042241A01261EE0B34B9E4248D0802319
S11335301B041943382D00DD19E11F2D00DD4CE17A
S113354020230F005B1B10009A409F40E840531E4D
S11335509A41E940074317435346DF1B611ABA45B2
S1133560A44164420C1B230200D4C5E06402650A32
S1133570002D00D1F6E0280000F01EFB0300083BFC
S11335801F2B00DDE9E020223C00D21A9D40D440EC
S11335909F4025439E4200DDDBE09E1B731C1F2BD6
S11335A000DD0AE120223800D21A290097402C00BD
S11335B09140D8407A1E9741DC40002601430F43D6
S11335C07B0709D00F233B40042B05D03B1DBB4296
S11335D0BF417F42E4191F00230225D5864B0136E3
S11335E09E4200D1AFE0854B01251C404346620753
S11335F0FF08640276051743240B760D1D40002155
S11336002403230B0C0D7E4A24051C43144033056C
S113361023435B00ED075B082B43380019001CBCF7
S113362090469946A246F0BD012543466207FF082D
S11336301743E4081D40704B9E4236D024037605A0
S1133640240B760DDBE76346F31A002B00DC94E0D1
S11336506046002835D068488642B1D080273F04B0
S11336603943382B00DCFDE00A43170000217A1EA1
S11336709741574457458041091944420C19230284
S11336803AD55D4B01369E4200D14BE101225B4BA2
S11336901C407B0817401F43E207174364088FE769
S11336A00800104300D024E721E723003B4300D166
S11336B0B9E18022120314432403240B9FE72E0054
S11336C07EE70800104300D1CAE0581E8446002853
S11336D000D0E7E052445245804164184042241827
S11336E017000126230207D50226CFE764462C43A0
S11336F000D1B3E12C0067467B0700D062E7630783
S1133700FF081F4301254346E4081D4093E7002DAD
S113371078D1751C6D056D0D012D00DCF2E050466D
S1133720801A8245BF41651A7F42ED1B84462802F8
S113373000D48CE05046171ABA4292410C1B5542F1
S1133740651B984614E70125434600241D400027C5
S113375055E72A4CF61A2C4032E73D0028388540BC
S1133760002717E7380000F027FA203006E70A435D
S1133770170000217A1E9741EEE6002B00D0E5E009
S1133780731C9C465B055B0D012B00DC9FE01A4B10
S11337909C4500D1C5E052445245804164184042E2
S11337A02418E707520817436408664608E71248D6
S11337B0854200D185E01D00BCE629001F3EF14092
S11337C0202B00D17FE04022D31A9D402F437D1E41
S11337D0AF4100240F4300268EE72B000F00203B4F
S11337E0DF40202D71D040235D1BA9400A43511EA8
S11337F08A4100211743AFE6FF070000FFFF7FFF68
S1133800FFFF0F80002E3ED0B34EB44545D0802636
S113381036046D423443382D00DDA8E01F2D00DD51
S11338201FE1202627005046761BB740E840074397
S11338305046B040461EB041EC403843171ABA42D5
S113384092410C1B5242A41A664698468BE6644683
S113385067462C4300D08BE6002500260027EAE6C5
S11338601E00ADE61F2B60DC2027F81A0F008446EB
S113387087401000D840074360468240501E824172
S1133880D9401743F5E626005046064305D0ED43DC
S1133890002DD3D0904EB445BDD10C001700664620
S11338A098468DE68C4883420BD06346D9E6002DBA
S11338B000D096E00800104300D1E2E00C001700AD
S11338C09846854E7CE6002580E700218EE723009C
S11338D050460343002E00D0A8E0002B00D1DEE0C8
S11338E00B00134300D16BE65244524580416418E7
S11338F0404224181700230200D4FDE6774B6646A5
S11339001C405DE6250050460543002ECFD1002D16
S11339104FD10C00144300D1A0E00C0017009846CE
S11339204EE666460024002785E61F000800203F77
S1133930F8400700202B00D18EE04020C31A9940A4
S11339400A43511E8A410021174392E6002E14D1E6
S113395026005046064362D0DB43002B5CD1871817
S11339609742924164185242A418664687E650462C
S11339702043441EA041002460E7574EB4454ED076
S1133980802636045B423443382B00DD7FE01F2B56
S113399000DD8BE0202627005046F61AB740D840B9
S11339A007435046B040461EB0410743DC40BF18B1
S11339B0D6E70D00154300D102E65046801A824531
S11339C0BF41651A7F42ED1B8446280200D48DE670
S11339D05046171ABA4292410C1B5242A41A9846F6
S11339E0EEE50D00154300D16BE750466707C008AC
S11339F007438020E4080003044207D0CD080542B1
S1133A0004D12C009846D70849070F437B0FE400E4
S1133A101C43FF00304ED3E52F4EB445B4D10C0007
S1133A2017006646CCE500270024E8E5002B39D0D2
S1133A300B00134300D144E7C00867070743802005
S1133A40E40800030442E1D0CB080342DED1D708E6
S1133A5049070F431C00D9E7002171E7002500271F
S1133A60E9E52E002700203EF740202D2FD04026E8
S1133A70751BAC4050462043441EA04100243843EB
S1133A80DCE6802400252403134E0027D3E55046AA
S1133A9020430700781E87410024BF1860E70C000C
S1133AA017008DE50C0017000B4E89E51E0027005A
S1133AB0203EF740202B0CD04026F31A9C40504661
S1133AC02043441EA04107430024BF1848E70024B4
S1133AD0D0E70024F3E7C046FF070000FFFF7FFFA5
S1133AE030B5134D0A034B00120B5B0DC90F0024B4
S1133AF0AB4210DD0F4CA3420FDC80240E4D640357
S1133B002243ED1A1F2D0BDD0C48C31ADA40544230
S1133B10002900D11400200030BD094BCC18FAE76D
S1133B20084CE840A44663449A400243EFE7C04689
S1133B30FE0300001D040000330400001304000011
S1133B40FFFFFF7FEDFBFFFF10B5041E28D000F040
S1133B5033F8154B154A1B1AD21A1F2A15DD144ABD
S1133B60D21A9440002224035B05240B5B0D002130
S1133B70100024030A0D240B120522430D4C1B05CF
S1133B80224013435B00590810BD210091400A00F4
S1133B900B21081AC4405B052403240B5B0DE6E7E4
S1133BA0002300240022E2E71E0400003304000086
S1133BB013040000FFFF0F801C2101231B04984203
S1133BC001D3000C10391B0A984201D3000A0839AA
S1133BD01B09984201D30009043902A2105C401861
S1133BE07047C04604030202010101010000000005
S1133BF00000000070B500260C4D0D4C641BA41091
S1133C00A64209D1002603F077FD0A4D0A4C641B35
S1133C10A410A64205D170BDB300EB5898470136F5
S1133C20EEE7B300EB5898470136F2E7047700005B
S1133C300477000004770000087700000EB410B584
S1133C409DB002A9029008610B48822488604861F3
S1133C50012040421FABC881084804CBA40000687F
S1133C6001938C8100F06EF80023029A13701DB04A
S1133C7010BC08BC03B01847FFFFFF7F08000020FA
S1133C80F0B58E6885B007000C00039201939E4244
S1133C9039D890238A89DB001A4234D00325096974
S1133CA023685B1A0293636902985D43EB0F5D1905
S1133CB0019B6D1001331B18AB4200D91D00530545
S1133CC032D52900380000F039FB061E09D10C2337
S1133CD03B6040230120A28940421343A38105B0E5
S1133CE0F0BD029A216900F0C4FAA389144A1A406B
S1133CF080231343A381029B2661F6182660656125
S1133D00019EED1AA560019BB34200D21E00320051
S1133D100399206800F0B6FAA36800209B1BA360F7
S1133D2023689E192660DAE72A00380000F064FB55
S1133D30061EE0D12169380000F0B6FAC7E7C04694
S1133D407FFBFFFFF0B59FB0029005938B890F00B6
S1133D5016001B0611D50B69002B0ED1402100F073
S1133D60EDFA38603861002805D10C23029A013835
S1133D7013601FB0F0BD40237B61002306AD6B616F
S1133D8020336B761033AB7634002378002B47D185
S1133D90A31B04930DD0A31B320039000298FFF734
S1133DA06FFF431C00D1B5E06A69049B94466344E9
S1133DB06B612378002B00D1ACE001220023524236
S1133DC06A6002A95432521801342B60EB60AB6074
S1133DD01370AB65584E05222178300000F03EFA8E
S1133DE0621C002820D12968CB0604D5532302AED7
S1133DF020309B1918700B0704D553232B2002AED7
S1133E009B19187023782A2B16D000200A21099BAD
S1133E102278303A092A55D9002815D0099313E09D
S1133E20252BB5D00134B0E70123801B83402968DA
S1133E3014000B432B60CDE7059B181D1B680590F0
S1133E40002B39DB0993140023782E2B0BD16378D4
S1133E50621C2A2B3ED1059B02341A1D1B68059255
S1133E60002B34DB0793354E21780322300000F019
S1133E70F5F9002806D04023801B83402A680134CA
S1133E8013432B60217806222D48661C297600F006
S1133E90E5F9002846D02B4B002B2FD12968059B30
S1133EA00722C90528D59B189343083305936B69EA
S1133EB0039A9B186B6167E75B42EB6002230B4339
S1133EC02B60C0E74B4301349B180120A0E701237A
S1133ED05B42C7E7002314000A201A006B602178B4
S1133EE03039092903D9002BBDD00792BBE74243DF
S1133EF0013452180123F2E70733D5E705AB0093E9
S1133F003A00114B2900029800E000BF0390039B84
S1133F100133CCD1BB890B985B0600D429E701207F
S1133F20404226E705AB00933A00074B290002986C
S1133F3000F07AF8EAE7C046C4760000CA760000CA
S1133F40CE76000000000000813C0000F7B51500AB
S1133F5001938A680B6900900C00934200DA130005
S1133F6022002B6043321278002A01D001332B60E7
S1133F7023689B0602D52B6802332B60062723682F
S1133F801F4027D0230043331B785A1E93412268D5
S1133F90920630D42200019943320098089EB0471B
S1133FA0431C25D0062320682A68E16803400025C5
S1133FB0042B03D18D1AEB43DB171D40A368226940
S1133FC0934201DD9B1AED180027BD4220D1002049
S1133FD010E00137E3682A689B1A9F42D2DA220074
S1133FE00123193201990098089EB047431CF0D16F
S1133FF001204042FEBD3020E11843310870210009
S11340005A1C45310978A218433202331170C1E7B2
S1134010220001231A3201990098089EB047431CDC
S1134020E6D00137D1E70000F0B58BB006920A0064
S113403043320793059004920A7E0C00109B6E2A6B
S113404000D18FE017D8632A2CD008D8002A00D1D9
S113405099E0582A54D026004236327029E0642A66
S113406001D0692AF7D121681A68080623D5111DE1
S11340701960156825E0732A00D188E008D86F2AF2
S113408029D0702AE7D1202209680A43226003E07C
S1134090752A20D0782ADED1220078214532117089
S11340A06C4A30E00E001A684236111D196013681C
S11340B03370012379E04906D9D5111D1960002315
S11340C0D55E002D03DA2D23049A6D421370624BE2
S11340D00A2703932FE020681968050603D5081DF5
S11340E018600D6805E04006F9D50D68081D1860D4
S11340F0ADB2594B082703936F2A18D00A2716E04C
S113410045310A70544A03921A682168101D1860D8
S11341101568080622D5CB0702D520231943216050
S11341201027002D03D1202322689A432260230004
S1134130002243331A706368A360002B5CDB042203
S1134140216891432160002D58D1049E002B64D036
S11341502600039B42361B7833705EE04806DAD5AE
S1134160ADB2D8E709681A68080605D5111D1960AB
S1134170136862691A6006E04906F7D5111D1960D3
S11341801368A28A1A800023049E236154E01A68EB
S1134190111D1960166800216268300000F05EF895
S11341A0002801D0801B6060636823610023049AA7
S11341B0137041E02369320006990598079DA847CA
S11341C0431C43D0236800259B070FD4099BE06858
S11341D098423DDA18003BE0220001231932069987
S11341E00598079EB047431C30D00135E368099A0F
S11341F09B1A9D42F0DBE9E7002DA9D0049E28001C
S11342003900FEF78DF8039B013E5B5C2800337098
S11342103900FDF7FFFF051EF1D1082F09D12368EE
S1134220DB0706D563682269934202DC3023013E32
S11342303370049B9B1B2361079B09AA00932100F5
S1134240069B0598FFF782FE431CB3D10120404230
S11342500BB0F0BDE6760000D5760000C9B2821836
S1134260904201D10020704703788B42FBD001308B
S1134270F6E7002310B59A4200D110BDCC5CC454BB
S11342800133F8E710B5884202D98B18984208D355
S113429000239A4207D0CC5CC4540133F9E78B5C09
S11342A08354013AFBD210BD70B50500002910D02B
S11342B00C1F2368002B00DAE418280000F0D4F85F
S11342C01D4A1368002B05D163601460280000F0B8
S11342D0CCF870BDA34209D9216860188342F3D198
S11342E018685B6841182160EEE713005A68002AD9
S11342F001D0A242F9D919685818A0420BD12068FC
S11343000918581819608242E0D11068526841189F
S113431019605A60DAE7A04202D90C232B60D5E772
S113432021686018824203D11068526841182160E4
S113433062605C60CAE7C046D4000020032370B505
S1134340CD1C9D43083506000C2D1ED20C25A94218
S11343501DD8300000F088F8254A1468210000298F
S113436019D1244C2368002B03D1300000F06AF8E3
S113437020602900300000F065F8431C2CD10C2388
S11343803000336000F071F803E0002DDFDA0C2315
S11343903360002070BD0B685B1B1AD40B2B03D950
S11343A00B60CC18256003E08C420ED16368136067
S11343B0300000F05AF8200007220B30231D9043F0
S11343C0C31AE7D05A42E250E4E74B6863600C003A
S11343D0EEE70C004968C2E70323C41C9C43A042D7
S11343E0E0D0211A300000F02DF8431CDAD1C6E7E2
S11343F0D4000020D8000020F8B507000D001600F6
S1134400002905D11100FFF799FF04002000F8BD31
S1134410002A03D1FFF748FF3400F7E700F026F83D
S11344202C008642F2D931003800FFF787FF041EC2
S1134430ECD029003200FFF71CFF29003800FFF7F9
S113444033FFE3E7002370B5064C05000800236042
S1134450FDF794FD431C03D12368002B00D02B608F
S113446070BDC0462C060020704770470B1F1B68A8
S1134470181F002B01DA0B58C01870478005000084
S11344802E0500002E0500002E0500002E0500005C
S11344907C0500002E0500002E0500002E050000FE
S11344A02E0500002E0500002E0500002E0500003C
S11344B02E0500002E0500002E0500002E0500002C
S11344C02E0500002E0500002E05000078050000D2
S11344D02E0500002E0500002E0500002E0500000C
S11344E02E0500002E0500002E0500002E050000FC
S11344F02E0500002E0500002E0500002E050000EC
S11345002E0500002E0500002E0500002E050000DB
S11345102E050000680500002E0500002E05000091
S11345202E0500002E0500002E0500007005000079
S11345302E0500002E0500002E0500002E050000AB
S11345402E0500002E0500002E0500007405000055
S11345502E0500002E0500002E0500002E0500008B
S11345602E0500002E0500002E0500002E0500007B
S11345702E0500002E0500002E0500002E0500006B
S11345802E0500002E0500002E0500002E0500005B
S11345902E0500002C0500002E0500002E0500004D
S11345A02E0500002E0500002E0500006C050000FD
S11345B0C04500000A001000C065000005000C00A2
S11345C000000000000000000000000000000000E7
S11345D000000000000000000000000000000000D7
S11345E000000000000000000000780086014B037A
S11345F0010285027B0386017800000000000000B0
S1134600000000000000000000007800FE01B70375
S1134610FF037B038703FE01780000000000000015
S11346200000CE01FF03FF03FF03FF03FF03FE01AE
S1134630FE01FC00FC0078003000000000000000D7
S113464000001000100038007C00FC00FE01FF0395
S1134650FE01FC00780030001000000000000000A3
S113466000003000780078007800FE01FF03FF03AB
S1134670FF03DE01300030003000000000000000C5
S11346800000200030007800FC00FE01FF03FF035F
S1134690FF03DE01300030003000000000000000A5
S11346A00000000000000000000000000000000006
S11346B000000000000000000000000000000000F6
S11346C000000000000000000000000000000000E6
S11346D000000000000000000000000000000000D6
S11346E000000000000000000000000000000000C6
S11346F000000000000000000000000000000000B6
S113470000000000000000000000000000000000A5
S11347100000000000000000000000000000000095
S113472000008001E001800340027C00420081001F
S113473081008100810042003C0000000000000074
S11347400000780084000201020102010201C40099
S1134750780010007C001000100000000000000031
S11347600000000000000000000000000000000045
S11347700000000000000000000000000000000035
S113478000000001C00178011801080108010801B6
S11347900801C801E801E8000E000F00070000004E
S11347A00000000000001000BA01C600020103036B
S11347B08601FE011000000000000000000000005F
S11347C00000000000000000010007003F00FF009F
S11347D0FF03FF003F00070001000000000000008D
S11347E0000000000000000000028003F003FC034E
S11347F0FF03FC03F003800300020000000000003C
S113480000001000380054001000100010001000C8
S113481010001000100010005400380010000000B8
S11348200000240024002400240024002400240088
S113483024002400000024002400000000000000E4
S11348400000FC009E009E009E009C0098009000CA
S11348509000900090009000900090009000000064
S11348600000F800040004000C0038006400840018
S11348708C00B8006000C000800084007C00000050
S113488000000000000000000000FE01FE01FE0127
S11348900000000000000000000000000000000014
S11348A00000100038005400100010001000100028
S11348B010001000100054003800100000007C00AC
S11348C00000100038005400100010001000100008
S11348D01000100010001000100010001000000064
S11348E00000100010001000100010001000100054
S11348F010001000100010005400380010000000D8
S113490000000000000000000000000040008000E3
S1134910FE018000400000000000000000000000D4
S11349200000000000000000000000000800040077
S1134930FE01040008000000000000000000000068
S1134940000000000000000000000200020002005D
S11349500200020002000200FE010000000000004C
S11349600000000000000000000000004800840077
S1134970FE01840048000000000000000000000068
S113498000000000000000002000200070007800FB
S1134990F800FC00FC01FE01FF0300000000000021
S11349A00000000000000000FF03FE01FC01FC0009
S11349B0F8007800700020002000000000000000D3
S11349C000000000000000000000000000000000E3
S11349D000000000000000000000000000000000D3
S11349E00000100010001000100010001000100053
S11349F01000100000001000100000000000000073
S1134A000000440044004400440000000000000092
S1134A100000000000000000000000000000000092
S1134A2000009000900048004800FE014800240067
S1134A30FF01240024001200120000000000000006
S1134A402000F8002C00240024002800300060001E
S1134A50E000A000A000A4007C00200000000000F2
S1134A6000000E021101910051004E0020001000C0
S1134A70C801280224022202C10100000000000033
S1134A800000380044004400640038000C001202A6
S1134A90310221014101C200FC01000000000000BC
S1134AA000001000100010001000000000000000C2
S1134AB000000000000000000000000000000000F2
S1134AC000008001600030001000080008000800A9
S1134AD00800080008001000300060008001000099
S1134AE00000060018003000200040004000400094
S1134AF04000400040002000300018000600000084
S1134B00000010001000D6006C00280038002800B7
S1134B100000000000000000000000000000000091
S1134B200000000000000000000010001000100051
S1134B301000FF0110001000100000000000000031
S1134B400000000000000000000000000000000061
S1134B5000000000000018001800100010000800F9
S1134B600000000000000000000000000000000041
S1134B70FC00000000000000000000000000000035
S1134B800000000000000000000000000000000021
S1134B9000000000000018001800000000000000E1
S1134BA00000000180008000400040002000200040
S1134BB010001000080008000400040002000000B7
S1134BC00000380044004400820082008200820019
S1134BD0820082004400440038000000000000000D
S1134BE0000010001E001000100010001000100043
S1134BF01000100010001000FE0000000000000073
S1134C0000003E0042004000400040002000200020
S1134C1010000800040002007E00000000000000F4
S1134C2000003C00400040004000400038004000CC
S1134C3040004000400040003C0000000000000034
S1134C400000200030002800280024002200220058
S1134C502100FF00200020002000000000000000D0
S1134C6000007C000400040004001C00200040003C
S1134C7040004000400020001C0000000000000034
S1134C80000078000400040002003A00460082009C
S1134C90820082008200440038000000000000000E
S1134CA00000FE00800040002000200010001000E2
S1134CB008000800080004000400000000000000D0
S1134CC000007C00820082008200640018006400FE
S1134CD042008200820042003C000000000000000C
S1134CE00000380044008200820082008200C40078
S1134CF0B8008000400040003C00000000000000BC
S1134D00000000000000000000001800180000006F
S1134D10000000000000180018000000000000005F
S1134D20000000000000000000001800180000004F
S1134D300000000000001800180010001000080017
S1134D40000000000000000000000001C00030006E
S1134D500C000C003000C000000100000000000046
S1134D600000000000000000000000000000FE0140
S1134D7000000000FE010000000000000000000030
S1134D800000000000000000000002000C003000E1
S1134D90C000C00030000C00020000000000000051
S1134DA000007E00C200820080004000200010004D
S1134DB008000800000008000800000000000000CF
S1134DC0000078008400E200930089008900C90093
S1134DD0C900E900B20346007C00000000000000A6
S1134DE000000000000010003800280048004400C3
S1134DF08400FE0002010201010200000000000024
S1134E000000000000007E008200820042003E009C
S1134E1042008200820082007E0000000000000048
S1134E20000000000000F8008600020001000100FC
S1134E300100010002000600F8000000000000006C
S1134E400000000000003E00420082008200820058
S1134E5082008200820042003E0000000000000048
S1134E60000000000000FE00020002000200020038
S1134E707E00020002000200FE00000000000000AC
S1134E80000000000000FE00020002000200020018
S1134E907E00020002000200020000000000000088
S1134EA0000000000000F0010C01040002000200F8
S1134EB0C201020104010C01F00100000000000025
S1134EC00000000000008200820082008200820054
S1134ED0FE008200820082008200000000000000C8
S1134EE0000000000000FE00100010001000100080
S1134EF01000100010001000FE0000000000000070
S1134F000000000000007800400040004000400025
S1134F1040004000400040003C0000000000000051
S1134F2000000000000082004200220012000E0077
S1134F300A0012006200820002010000000000006A
S1134F400000000000000200020002000200020053
S1134F500200020002000200FE0000000000000047
S1134F60000000000000C300C300C700A500A500A6
S1134F70AD0099009900810081000000000000004C
S1134F80000000000000820086008A008A0092006F
S1134F909200A200A200C2008200000000000000F3
S1134FA000000000000078008400020102010201F8
S1134FB002010201020184007800000000000000E8
S1134FC00000000000007E00820082008200420097
S1134FD03E00020002000200020000000000000087
S1134FE000000000000078008400020102010201B8
S1134FF002010201020184007800400080010000E7
S11350000000000000003E00420042004200220076
S11350101E00120022004200820000000000000076
S1135020000000000000FC008200020006001800DE
S1135030600080008000C2003E000000000000000C
S1135040000000000000FF0110001000100010001C
S113505010001000100010001000000000000000FC
S113506000000000000082008200820082008200B2
S113507082008200820044003C0000000000000026
S1135080000000000000010202010201840084000B
S113509044004800480030003000000000000000D8
S11350A0000000000000010201021201320132017D
S11350B02A014A01CC00CC0084000000000000005A
S11350C000000000000001020201840048003000DA
S11350D030004800840002010102000000000000CA
S11350E000000000000001020201840044002800C6
S11350F0100010001000100010000000000000005C
S1135100000000000000FE010001800040002000BB
S11351101000080004000200FE010000000000006E
S11351200000F80008000800080008000800080053
S1135130080008000800080008000800F800000043
S11351400000020004000400080008001000100021
S1135150200020004000400080008000000100008A
S113516000003E002000200020002000200020003D
S11351702000200020002000200020003E0000002D
S11351800000200020003000500058004800880033
S11351908400840002010000000000000000000000
S11351A000000000000000000000000000000000FB
S11351B000000000000000000000FF0300000000E9
S11351C010002000000000000000000000000000AB
S11351D000000000000000000000000000000000CB
S11351E0000000000000000000003C0040004000FF
S11351F07800440042006200DC000000000000006F
S1135200000002000200020002007A004600820050
S113521082008200820046003A0000000000000084
S113522000000000000000000000F800040002007C
S11352300200020002000400F80000000000000068
S113524000008000800080008000B800C40082005C
S1135250820082008200C400BC0000000000000044
S113526000000000000000000000780084008200BC
S1135270FE00020002000400F8000000000000002C
S11352800000E001180008000800FE010800080002
S113529008000800080008000800000000000000E2
S11352A000000000000000000000B800C4008200FC
S11352B0820082008200C400BC00800040003C00E8
S11352C00000020002000200020072008A00860050
S11352D08200820082008200820000000000000040
S11352E0000018001800000000001E00100010004C
S11352F0100010001000100010000000000000005A
S1135300000030003000000000003C0020002000BD
S113531020002000200020002000200020001E008B
S1135320000002000200020002008200620012007B
S11353300E000A003200420082000000000000005B
S113534000003C002000200020002000200020005D
S113535020002000200020002000000000000000A9
S113536000000000000000000000CD003301110126
S113537011011101110111011101000000000000CF
S11353800000000000000000000072008E00860093
S1135390820082008200820082000000000000007F
S11353A000000000000000000000380044008200FB
S11353B082008200820044003800000000000000E7
S11353C0000000000000000000007A004600820097
S11353D082008200820046003A00020002000200BD
S11353E000000000000000000000B800C4008200BB
S11353F0820082008200C400BC0080008000800023
S113540000000000000000000000E40094008C0094
S11354100400040004000400040000000000000074
S1135420000000000000000000007C0002000200F8
S11354300C003000400042003E000000000000006C
S113544000000000000008000800FE00080008003A
S11354500800080008000800F00000000000000038
S11354600000000000000000000042004200420072
S113547042004200420062005C00000000000000A4
S11354800000000000000000000001018200820012
S1135490420044002400280018000000000000001E
S11354A000000000000000000000010211023201AF
S11354B032014A014A01CC008400000000000000CF
S11354C00000000000000000000002018400480009
S11354D03000300048008400020100000000000099
S11354E000000000000000000000010202010201AF
S11354F084004C0048003000300010000800070011
S113550000000000000000000000FE0180004000D8
S11355102000100008000400FE010000000000004C
S11355200000E00010001000100010001000100037
S11355300C0010001000100010001000E00000002B
S113554000001000100010001000100010001000E7
S113555010001000100010001000100010000000D7
S113556000001C002000200020002000200020005B
S1135570C000200020002000200020001C000000AB
S113558000000000000000000000000000000E0207
S11355903102C10100000000000000000000000012
S11355A00000000000000000100028004400C600B5
S11355B08200820082008200FE00000000000000E1
S11355C0000000000000F800860002000100010055
S11355D00100010002000600F80040008000E00025
S11355E000000000240000000000420042004200CD
S11355F042004200420062005C0000000000000023
S113560000002000100000000000780084008200E8
S1135610FE00020002000400F80000000000000088
S1135620000018002400000000003C00400040007E
S11356307800440042006200DC000000000000002A
S1135640000000002400000000003C004000400076
S11356507800440042006200DC000000000000000A
S1135660000004000800000000003C00400040006E
S11356707800440042006200DC00000000000000EA
S1135680100028001000000000003C004000400012
S11356907800440042006200DC00000000000000CA
S11356A000000000000000000000F80004000200F8
S11356B00200020002000400F80020004000700014
S11356C0000018002400000000007800840082001C
S11356D0FE00020002000400F800000000000000C8
S11356E000000000480000000000780084008200F0
S11356F0FE00020002000400F800000000000000A8
S113570000000800100000000000780084008200FF
S1135710FE00020002000400F80000000000000087
S1135720000000002400000000001E001000100013
S11357301000100010001000100000000000000015
S1135740000018002400000000001E0010001000DB
S113575010001000100010001000000000000000F5
S1135760000008001000000000001E0010001000DF
S113577010001000100010001000000000000000D5
S113578044000000000010003800280048004400D5
S11357908400FE000201020101020000000000007A
S11357A03000480030003000680048004800C40061
S11357B08400FE0102010201010200000000000059
S11357C0200010000000FE0002000200020002009F
S11357D07E00020002000200FE0000000000000043
S11357E000000000000000000000EF0010011001A4
S11357F0FE01130011003100EE0100000000000062
S1135800000000000000F0013000280028002400FF
S1135810E40024003E002200E1010000000000003A
S1135820000018002400000000003800440082003A
S11358308200820082004400380000000000000062
S11358400000000024000000000038004400820032
S11358508200820082004400380000000000000042
S1135860000004000800000000003800440082002A
S11358708200820082004400380000000000000022
S11358800000180024000000000042004200420012
S113589042004200420062005C0000000000000080
S11358A00000040008000000000042004200420022
S11358B042004200420062005C0000000000000060
S11358C000000000240000000000010202010201A7
S11358D084004C004800300030001000080007002D
S11358E0440000000000780084000201020102016B
S11358F0020102010201840078000000000000009F
S113590044000000000082008200820082008200C5
S113591082008200820044003C000000000000007D
S113592000000000000000000000B8004400A200D5
S1135930920092008A0044003A0000000000000037
S11359400000E000100010001000100078001000AB
S11359501000100010000800FC000000000000000F
S113596000000000000078018400C201420122010D
S113597012010A010E0184007A00000000000000F8
S11359800000000000000000000002018400480044
S113599030003000480084000201000000000000D4
S11359A0E00010001000100010007C001000100037
S11359B010001000100010001000100010000E0065
S11359C0000020001000000000003C0040004000E7
S11359D07800440042006200DC0000000000000087
S11359E0000020001000000000001E001000100045
S11359F01000100010001000100000000000000053
S1135A000000200010000000000038004400820064
S1135A108200820082004400380000000000000080
S1135A20000020001000000000004200420042007C
S1135A3042004200420062005C00000000000000DE
S1135A400000480034000000000072008E00860050
S1135A5082008200820082008200000000000000B8
S1135A60580034000000820086008A008A009200F8
S1135A709200A200A200C200820000000000000008
S1135A8000003C004000780044004400F80000009E
S1135A900000000000000000000000000000000002
S1135AA000007800840084008400840078000000F2
S1135AB000000000000000000000000000000000E2
S1135AC00000000000000000000020002000000092
S1135AD02000200010000C00020082008600FC0060
S1135AE0000038004400BA00AA00BA00440038009C
S1135AF000000000000000000000000000000000A2
S1135B000000000000000000000000000000FE0192
S1135B10000100010001000000000000000000007E
S1135B200000830042004200220012001200C8015B
S1135B300802040282018200C10300000000000088
S1135B40000083004200420022001200120088017B
S1135B5048012401E20302010101000000000000E9
S1135B6000000000000000000000200020000000F1
S1135B702000200020002000200020002000200021
S1135B800000000000000000000010018800440034
S1135B902200440088001001000000000000000002
S1135BA00000000000000000000022004400880003
S1135BB010018800440022000000000000000000E2
S1135BC0DB00DB000000DB00DB000000DB00DB00AF
S1135BD000000000DB00DB000000DB00DB00000055
S1135BE06C036C03DB00FF036C03DB00FF036C033B
S1135BF0DB00DB006C03FF03DB006C03FF03DB0053
S1135C00FF03FF03DB00FF03FF03DB00FF03FF03CE
S1135C10DB00DB00FF03FF03DB00FF03FF03DB000C
S1135C2010001000100010001000100010001000F0
S1135C3010001000100010001000100010001000E0
S1135C4010001000100010001000100010001000D0
S1135C501F001000100010001000100010001000B1
S1135C602000100000001000380028004800440004
S1135C708400FE0002010201010200000000000095
S1135C80300048000000100038002800480044009C
S1135C908400FE0002010201010200000000000075
S1135CA008001000000010003800280048004400DC
S1135CB08400FE0002010201010200000000000055
S1135CC000007C00C600820079010D010501050178
S1135CD00D0179018200C6007C0000000000000074
S1135CE028002800280028002800280028002F0069
